:100000000C94F5010C943C020C943C020C943610B8
:100010000C943C020C943C020C943C020C943C0268
:100020000C943C020C943C020C94AA220C947E2367
:100030000C94B51C0C943C020C943C020C943C02B5
:100040000C943C020C943C020C943C020C943C0238
:100050000C943C020C940C1D0C943C020C943C023D
:100060000C943C020C943C020C943C020C943C0218
:100070000C943C020C943C020C943C020C943C0208
:100080000C943C020C943C020C943C020C943C02F8
:100090000C943C020C943C020C943C020C943C02E8
:1000A0000C943C020C943C020C943C022900140079
:1000B0001A000800150017002B00040016000700A6
:1000C00009000A00E1001D001B00060019000500E0
:1000D00000000000000091682C422A612D001300EE
:1000E00012000C0018001C00340033000F000E003A
:1000F0000D000B00E500380037003600100011003D
:10010000000000000000906828412A6101003100D1
:1001100023021E022402310226022002210234029E
:100120003400350201000100010001002F022F0000
:100130000000000000000100010001002D0022026B
:1001400025022E022E001F02270235004F0052000A
:100150005100500001000100010001003002300098
:10016000000000000000005C010001003A003B00BC
:100170003C003D003E003F0001001E001F0020002B
:10018000210022004000410042004300440045009D
:10019000000000000000005C010001002D002202B0
:1001A00025022E022E000100010027002600250056
:1001B0002400230001003800370036000100010050
:1001C000000000000000010001000100000000002C
:1001D000000000002A2B28000000000000000000A2
:1001E0000000000000000029000000002C1E342048
:1001F000212224342627252E362D3738271E1F206E
:100200002122232425263333362E37381F040506B2
:100210000708090A0B0C0D0E0F10111213141516F6
:100220001718191A1B1C1D2F3130232D35040506F4
:100230000708090A0B0C0D0E0F10111213141516D6
:100240001718191A1B1C1D2F3130354C00000000E7
:10025000000000000000000000000000000000009E
:10026000000000000000000000000000000000008E
:100270007E0F00D4FFFFFFC7000000781003770057
:1002800069006E00670073003400320000000C0348
:100290007900660075006B00750000000403090416
:1002A00009025B00030100A0FA0904000001030138
:1002B0000100092111010001224000070581030806
:1002C000000A0904010002030000000921110100D5
:1002D00001222200070582032000010705030320F5
:1002E00000010904020001030000000921110100BE
:1002F00001227B000705840320000A12011001007F
:10030000000008465903000100010200010660FFD9
:100310000961A1010962150026FF00952075088179
:10032000020963150026FF00952075089102C0059B
:10033000010902A10185020901A10005091901298C
:10034000081500250195087501810205010930098C
:10035000311581257F95027508810609381581259B
:100360007F950175088106050C0A38021581257FE5
:10037000950175088106C0C005010980A1018503AA
:1003800019012AB700150126B700950175108100E3
:10039000C0050C0901A101850419012AA00215015B
:1003A00026A002950175108100C005010906A10172
:1003B000050719E029E71500250195087501810257
:1003C0009501750881010507190029FF150026FF11
:1003D0000095067508810005081901290595057520
:1003E000019102950175039101C011241FBECFEF49
:1003F000DAE0DEBFCDBF04B603FE27C080917902EC
:1004000090917A02A0917B02B0917C028730904B50
:10041000A740B04BD1F41092790210927A02109258
:100420007B0210927C0214BE84B7877F84BF0FB614
:10043000F894A89580916000886180936000109284
:1004400060000FBEE0E0F8E3099511E0A0E0B1E044
:10045000E0ECFBE402C005900D92AE39B107D9F78C
:1004600022E0AEE9B1E001C01D92A937B207E1F781
:100470000E94681F0C94A7250C94000081E0089549
:1004800081E008950C94400208950C9444021F9357
:10049000CF93DF9300D000D00F92CDB7DEB7498362
:1004A0005A836B833091D80189819A8131111DC0A3
:1004B0006623B9F02223A9F00E94261A182F682F6C
:1004C00089819A810E94CF1969817A81812F0F9049
:1004D0000F900F900F900F90DF91CF911F910C9480
:1004E0005F0C0E94FD19182FEFCF0E94261A698118
:1004F0007A81EDCFFC01262F408151816281738189
:1005000084810C944702CF93DF93EC0160E00E945A
:100510007A02BE01DF91CF910C9445028F929F9297
:10052000AF92BF92CF92DF92EF92FF920F931F9301
:100530006B017C0181E090E0A0E0B0E04C015D0146
:1005400004C0880C991CAA1CBB1C4A95D2F7B501A3
:10055000A4014C015D0104C0880C991CAA1CBB1CA1
:100560002A95D2F7482959296A297B2904C0880F7E
:10057000991FAA1FBB1F0A95D2F78A019B010C2164
:100580001D212E213F21041715072607370789F45F
:100590008C299D29AE29BF29BC01CD011F910F9146
:1005A000FF90EF90DF90CF90BF90AF909F908F9093
:1005B000089580959095A095B0958C219D21AE21B0
:1005C000BF21EACF0F93382F262F60912F02709111
:1005D00030028091310290913202042F432F0E9409
:1005E0008E020F910C940D190E949C1D0E94651B98
:1005F000811102C00E94091C0C9407060C940A0683
:1006000008950E94B1150E9400032FEF84E39CE03F
:10061000215080409040E1F700C000000C94711D13
:100620000F931F93CF93DF93EC0161E00E947A0256
:100630008C01BE010E94A70A882359F1BE01C8019E
:100640000E944202882329F1BE01C8010E94960D32
:100650008823F9F0BE01C8010E94E80D8823C9F083
:10066000BE01C8010E940B0F882399F08A8188235C
:1006700039F001158CE5180751F00E3D1C4579F055
:10068000CE01DF91CF911F910F910C943E020E94F9
:10069000010380E0DF91CF911F910F9108950E9497
:1006A000091CF7CFDF92EF92FF920F931F93CF9326
:1006B000DF93E82FF0E0E453FE4FD490282F2695E7
:1006C0002695269530E0F901E459FD4F0491877095
:1006D00010E0082E02C0159507950A94E2F7017004
:1006E0001127F901E45AFD4FE490F12C082E02C0C5
:1006F000F594E7940A94E2F791E0E922FF24F901E6
:10070000E45BFD4FC491D0E002C0D595C7958A95B2
:10071000E2F7C170DD270115110519F081EE0E9485
:100720003E12E114F10419F086EE0E943E128D2D66
:100730000E943D13EF2819F086EE0E94D012012B83
:1007400019F081EE0E94D012CD2B51F08CE2DF9196
:10075000CF911F910F91FF90EF90DF900C943D137C
:10076000DF91CF911F910F91FF90EF90DF9008954F
:10077000EF92FF920F931F93CF93DF93EC01162F0D
:100780000AE08881882309F454C0813009F04EC002
:100790008981813099F47E0122E0E20EF11C8A8188
:1007A0000E943D13E7012196812F815050F3EFE91C
:1007B000FFE03197F1F700C00000F7CF823041F43D
:1007C0007E0182E0E80EF11C8A810E943E12EACF8F
:1007D000833041F47E01E2E0EE0EF11C8A810E943A
:1007E000D012E0CF843011F02196DDCF2A812296FD
:1007F00090E080E0AE014F5F5F4F2053330B2A3013
:10080000310548F0019778F2EFE9FFE03197F1F711
:1008100000C00000F7CF089FB001099F700D1124A0
:10082000C901860F971F2981EA01E4CF0E94520374
:10083000BACFDF91CF911F910F91FF90EF90089564
:1008400060E00C94B80308950C94230481E00895AB
:100850000C942604CF93C82F0E9424048C2FCF9190
:100860000C942804CF93DF930E945F0C0E942C0508
:10087000EC01811521E5920708F042C0811530E5B1
:10088000930708F09DC0883E910530F5803E9105A4
:1008900008F092C0883A910588F4853A910508F0ED
:1008A00084C08130910509F487C0009709F484C0A1
:1008B000049708F081C0D0E0C0E07EC08F3B910576
:1008C000D0F7C85AD0E0CC0FDD1FC25EDE4F0990D2
:1008D000D881C02DD46470C08115904250F4C115E8
:1008E00081E0D80708F068C0C03FD10520F3D0658B
:1008F00063C0C11590E4D907F0F2DF70D06A5CC024
:10090000811525E5920700F5811534E5930708F078
:100910008BC0811543E5940708F073C0C11582E5CB
:10092000D80708F469C0CE018370992721E030E030
:1009300002C0220F331F8A95E2F7C695C69580E262
:10094000C89FE001112454C0C11599E5D907A8F446
:10095000C11528E5D20708F06CC0C11536E5D307EC
:1009600008F0A9CF8C2F0E94C305C82FD0E0DC2F40
:10097000CC27CC27DF71D0621FC0C1154AE5D40750
:1009800008F45CC0CE0190568115904208F093CFD8
:100990008D2F8F710E94C30590E0982F882788279C
:1009A0009F719C012C2BE901E6CFC55AD0E0C45BB6
:1009B000DE4FC881D0E0D064CE01DF91CF910895A1
:1009C000E4E096958795EA95E1F783702C2F2695BC
:1009D0002695237040E2249F90011124382B8C2F00
:1009E0008370C1E0D0E002C0CC0FDD1F8A95E2F732
:1009F000C22BD32BDC68E0CFDC2FCC27C16FD06AB1
:100A0000DBCF8370992721E030E002C0220F331F33
:100A10008A95E2F7C695C69590E2C99FE001112438
:100A2000C22BD32BDA68C8CFD82FCC27C46FD06A9B
:100A3000C3CFDC2FCC27C06FD06ABECF8C2F8F7076
:100A40000E94C30534E0D695C7953A95E1F7CF707B
:100A50009C2FEC01D069B0CF82389105B1F1B0F490
:100A60008133910509F475C048F48932910509F480
:100A700069C08A32910509F473C0089585339105E0
:100A800009F459C08933910501F10895833E910518
:100A9000A9F138F4803E9105F9F0823E910549F1C3
:100AA0000895863E9105A9F1873E9105C9F1843EDE
:100AB000910519F520916B0221FF1FC080916A02F8
:100AC00084FD14C087EE90E0089520916A0223709F
:100AD000A1F080EE90E0089520916A0220FD47C0C9
:100AE00030916B0230FF09C024FF44C090E080E0E9
:100AF00004C020916A0222FDF7CF089520916A0276
:100B000022FD3BC030916B0230FDE3CF24FFF5CFD7
:100B1000EDCF20916A0223FFF0CF24FDE7CFD2CFA3
:100B200020916A0223FD2CC030916B0231FFEECF81
:100B300084EE90E0089520916A0225FFDECF89E2DD
:100B400090E0089520916A0225FFD7CF85E390E0D9
:100B5000089520916A0226FFD0CF8AE290E008959E
:100B600020916A0226FFC9CF81E390E0089589E3CE
:100B700090E0089583EE90E0089582EE90E008956D
:100B800086EE90E0089590916A0292FF06C0282FA9
:100B900028712830F9F4877F846093FF06C0282FDE
:100BA00028712831F1F4877E846120916B0220FF47
:100BB00006C0382F38713830D9F4877F816021FF23
:100BC00006C0282F28712831D1F4877E816194FDD9
:100BD000877E0895282F24712430F9F68B7F886052
:100BE000DCCF282F2471243101F78B7E8861DDCF83
:100BF000382F3171313019F78E7F8860E0CF282F80
:100C00002171213121F78E7E8861E1CF08950C9406
:100C1000060608950C940906E82FF0E0E85AFD4F07
:100C200080810895089580EA8A95F1F7089500C0BB
:100C300008950C941306F894E82FE295EF70F0E015
:100C400031A1282F2F7081E090E001C0880F2A95F4
:100C5000EAF7982F9095932391A392A1892B82A3D1
:100C60007894089508950E94B407809100018091BE
:100C7000000194E0811190E09093610284E0891B6F
:100C80008093600284E90E941B0686E60E941B0690
:100C900087E90E941B0686EC0E941B0683E30E94E4
:100CA0001B0681E30E941B0687EF0E941B0686EF4E
:100CB0000E941B0685EF0E941B0684EF0E941B0604
:100CC000E0E5F2E0A8E5B2E088E592E011921D923D
:100CD0008E179F07D9F784E00E945F070E94F402F5
:100CE0000C94BE071F93CF93DF9300D000D0CDB7F5
:100CF000DEB70E949607182F60916102882309F4DD
:100D00004FC019821A821B821C82862F90E0BE017E
:100D10006F5F7F4F885A9D4F0E94410F811120C005
:100D20008091A0018F5F8093A0018630B8F1E0919F
:100D30006002F0E0E85AFD4FDE011196CE01059603
:100D400011921D92A817B907D9F70E94FE02812FB0
:100D50000F900F900F900F90DF91CF911F910895FA
:100D60001092A001A0916002B0E0A85ABD4FBE0150
:100D70006F5F7F4F9E012B5F3F4F10E04D91FB0156
:100D80009191BF01491731F0AD0141505109FA016C
:100D90009083182F6217730789F7D7CF10E0D5CF4C
:100DA00070E0685A7D4F8091600290E0885A9D4FB4
:100DB0000E94680F0E943206CACFCF92DF92EF9254
:100DC000FF920F931F93CF93DF9305E511E080E52A
:100DD000E82E82E0F82EC0E0CC24C394D12CF80198
:100DE00081918F01F894E82FE295EF70F0E021A156
:100DF0008F70A60102C0440F551F8A95E2F7CA0101
:100E0000922F982B91A392A18095892382A3789405
:100E10000E941706EFE4F1E030E020E0D0E04191DD
:100E2000A42FA295AF70B0E090968C9190E04F7097
:100E300002C0959587954A95E2F780FD3CC08C2DC0
:100E4000022E01C0880F0A94EAF7D82B2F5F3F4F7C
:100E50002630310521F7F801319780810E941B0669
:100E60000E941906F7018081D81739F1D08381E0FB
:100E7000C82BFFEFEF1AFF0A41E00935140709F00C
:100E8000AECF6091610270E0685A7D4F2C2F44E034
:100E900080E592E00E9460070E947206C11101C0C5
:100EA000C82F8C2FDF91CF911F910F91FF90EF9062
:100EB000DF90CF90089580E0C8CF80E0D9CF08952B
:100EC000FF920F931F93CF93DF93F82E092F162FC6
:100ED000D72FC42F222349F081E08093A3010E94E1
:100EE000E51C9093A2018093A1018091A301882326
:100EF000A1F08091A1019091A2010E94FD1C069792
:100F000060F0EF2DF02FA12FBD2FCE0FDF2FD11DC1
:100F1000EC17FD0741F41092A301DF91CF911F91CF
:100F20000F91FF90089581918D93F2CF8091A4014C
:100F3000811111C08091D80080618093D8008AE12E
:100F40008A95F1F700C09091D900892F817090FFA8
:100F500082E08093A40181E09091A401913009F096
:100F600080E008950C9496070E94B20780930001D8
:100F70000E94960781110C94350F08950E949607E0
:100F8000811102C00C943B0F08958091AB0180FF4A
:100F900012C06091060185E0689FB001112475952B
:100FA00067957595679560387105A8F561157105A8
:100FB000A1F1862F089581FF09C06091060185E0A7
:100FC000689FB001112475956795EDCF609106017A
:100FD00082FD0AC08091AA018823D1F09091050179
:100FE00060910601891728F085E0689FB0011124FF
:100FF000DACF869FB001112485E0869F9001879FFC
:10100000300D1124692F70E0C9010E943025CBCF2B
:1010100065E070E0CECF8FE7089581E0089580917C
:10102000AB0180FF0CC06091020170E0759567957F
:10103000759567956115710549F1862F089581FFB2
:1010400006C06091020170E075956795F3CF6091DD
:10105000020182FD0BC09091A9019923A1F060913A
:10106000010180910201961738F0682F70E0603816
:10107000710500F38FE70895899FC001112470E086
:101080000E943025F4CF61E070E0D7CF81E0089571
:10109000803F31F40E94C50781958093AF01089588
:1010A000813F19F40E94C507F8CF823F31F40E94B6
:1010B000C50781958093AE010895833F19F40E947E
:1010C000C507F8CF893F29F40E940F088093B0012B
:1010D00008958A3F21F40E940F088195F7CF8B3F36
:1010E00031F40E940F0881958093B10108958C3FDF
:1010F00019F40E940F08F8CF9CE0980F953070F417
:10110000845F990B21E030E001C0220F8A95EAF755
:101110008091AD01822B8093AD0108958D3F31F414
:101120008091AB0181608093AB0108958E3F21F4E3
:101130008091AB018260F7CF8F3FB9F78091AB010F
:101140008460F1CF4091AE01803F59F48091AF01AE
:1011500087FF0DC01092AF0141110BC01092AA0180
:1011600008C0813F81F48091AF0118169CF344239D
:1011700081F08091B0019091B101892B09F05AC0A2
:101180001092A9010895823F49F447FFF0CF1092D1
:10119000AE018091AF018111ECCFE0CF833F19F414
:1011A0001416ACF3E4CF9091B001893F29F41916DD
:1011B000F4F61092B001DBCF8A3F19F497FFD7CF36
:1011C000F8CF9091B1018B3F29F497FFD0CF1092C7
:1011D000B101CDCF8C3F19F41916CCF3C8CF9CE0E8
:1011E000980F953090F4845F990B21E030E0B901BD
:1011F00002C0660F771F8A95E2F7CB018095909128
:10120000AD0189238093AD01B2CF8D3F31F4809140
:10121000AB018E7F8093AB01AACF8E3F21F48091EA
:10122000AB018D7FF7CF8F3F09F0A1CF8091AB014C
:101230008B7FF0CF08950E94E51C9C019091AE0138
:101240008091AF01982B21F03093A8012093A70142
:101250009091B0018091B101982B21F03093A601BB
:101260002093A5018CEA91E00C94F110EF92FF928B
:101270000F931F93CF93DF9300D000D000D0CDB752
:10128000DEB786E0ECEAF1E0DE01119601900D9206
:101290008A95E1F7E090AE01F090AF010091B001C6
:1012A0001091B1011092AE011092AF011092B001F5
:1012B0001092B1018E2D8F2991F08091A70190910C
:1012C000A8010E94FD1CAC019091AA01992309F488
:1012D0003FC0809107018417150608F447C0802F8E
:1012E000812B91F08091A5019091A6010E94FD1C97
:1012F000AC019091A901992309F477C08091030171
:101300008417150608F47FC08091AE019091AF015B
:10131000892B9091B001892B9091B101892B11F00B
:101320000E941B0986E0FE013196ACEAB1E0019013
:101330000D928A95E1F726960FB6F894DEBF0FBEA0
:10134000CDBFDF91CF911F910F91FF90EF90089546
:10135000209108018AE0289F900111242417350765
:1013600008F0BDCF9F5F9093AA0102C09F3FD1F7C5
:10137000EE2059F00E94C5079FEF1E140CF491E077
:10138000899F802D11248093AE01FF2059F00E9487
:10139000C5079FEF1F140CF491E0899F802D112445
:1013A0008093AF013091AE01332309F498CF20919F
:1013B000AF01222309F493CF45EB3403C00111247C
:1013C000992359F09093AE0145EB24039001112429
:1013D000332339F03093AF0182CF81E08093AE01A7
:1013E000F3CF81E08093AF017ACF209104018AE0AE
:1013F000289F900111242417350708F085CF9F5F9F
:101400009093A90102C09F3FD1F7002359F00E9499
:101410000F089FEF10160CF491E0899F802D112486
:101420008093B001112359F00E940F089FEF11160D
:101430000CF491E0899F802D11248093B1013091AB
:10144000B001332309F460CF2091B101222309F4C4
:101450005BCF45EB3403C0011124992359F09093DD
:10146000B00145EB240390011124332339F030936C
:10147000B1014ACF81E08093B001F3CF81E0809346
:10148000B10142CF86E0ECEAF1E0DF011D928A95DE
:10149000E9F71092AA011092A9011092AB010895E8
:1014A00082E290E00E946525813289F483E290E037
:1014B0000E946525843059F484E290E00E946525FD
:1014C00091E0803309F090E0892F8170089580E0E9
:1014D000FCCFCF93C82F6FEF811161E282E290E0E1
:1014E0000E9473256FEFC11164E083E290E00E94D7
:1014F00073256FEFC11160E384E290E0CF910C940B
:10150000732580E00E94690A0C945F1B089585E2B0
:1015100090E00E946525682F70E090E080E00895DB
:1015200085E290E00C9473250E94860A0E94500A7E
:1015300081110CC060E070E0CB010E94900A0E9413
:10154000D70B0E94C30C81E00C94690A0895CF93D5
:10155000FB01C281CC2309F19C0122513F4520317E
:10156000310520F582510E94D30CC0E08C2FCF9121
:10157000089581E00E94331943E062E081E00E9417
:10158000E202F3CF81E00E94541943E062E081E07F
:101590000E94E202EBCF82E0F6CF8031FFE59F07A9
:1015A00089F381319F45B9F3C1E0E0CF8031EFE5A8
:1015B0009E07F9F281319F45C9F682E0DBCF2FEF1C
:1015C000FC0120830895EF92FF920F931F93CF9316
:1015D000DF93EC01062FE881E150E33108F05EC0B3
:1015E000F0E0E755FA4D0C944425198289E08A838E
:1015F000602FCE01DF91CF911F910F91FF90EF905F
:101600000C945D1E8981823069F0833071F08130E5
:10161000D9F40E94F11C0E944A256A837B838C8343
:101620009D83E6CF0E94870AF6CF7E0182E0E80E16
:10163000F11C10E0812F0E940C06F70181937F01BD
:101640001F5F1830B9F7D4CF602FCE010E94DF0A98
:10165000CFCF89818230C1F76A817B818C819D8166
:101660000E944A250E94900AC3CF4B816A818981DA
:101670000E94A90B9827892798279D838C83B8CF30
:101680002C813D813227232732274B816A81898132
:101690000E94C20BADCF0E94D70BAACF8FEF8883D9
:1016A000A7CF0E946C0C8983A3CF0E946E0C982751
:1016B000892798279A8389839BCF6B8170E08981E2
:1016C0009A81AE014C5F5F4F9827892798270E9427
:1016D000710C8ECF6B8170E089819A81AE014C5F75
:1016E0005F4F9827892798270E94980C81CF0E94E6
:1016F000C30C7ECF0E94970BD6CF6B8170E089819F
:101700009A81AE014C5F5F4F9827892798270E94E6
:101710000F0C6ECF6B8170E089819A81AE014C5FB6
:101720005F4F9827892798270E94350C61CF84E066
:10173000089550E0440F551F9CE0699F400D511DD6
:10174000112490E6899F400D511D1124CA018696EF
:1017500008950F931F93CF93DF930E94990B8C01F1
:101760000E946525C82FD0E0DC2FCC27C801019648
:101770000E9465259E01282BC901DF91CF911F9101
:101780000F9108950F931F93CF93DF93122F032F81
:101790000E94990BEC01602F0E947325612FCE01EE
:1017A0000196DF91CF911F910F910C947325AF9209
:1017B000BF92CF92DF92EF92FF921F93CF93DF936E
:1017C0008CEAC82E80E0D82ED0E07601C0E014C0AC
:1017D000F50125913491412F6C2F8D2F0E94C20B62
:1017E00082E0A80EB11C1F5F163091F78CE0E80E66
:1017F000F11CCF5FC83019F0570110E0E9CFDF5F6F
:1018000080E6C80ED11CD43001F7DF91CF911F9133
:10181000FF90EF90DF90CF90BF90AF900895EF9240
:10182000FF920F931F93CF93DF93EC018A017C010A
:10183000E60EF71ECE018696CE15DF0539F4DF9150
:10184000CF911F910F91FF90EF900895C03821E044
:10185000D20740F40E946525F80180830F5F1F4F77
:101860002196E8CFF8011082F9CFCF92DF92EF9264
:10187000FF920F931F93CF93DF937C016A018C013A
:10188000060F171FEC01CE018696C017D10749F449
:10189000DF91CF911F910F91FF90EF90DF90CF904C
:1018A0000895C03821E0D20740F4FE01EE19FF0987
:1018B000EC0DFD1D60810E9473252196E4CF462F1B
:1018C000843038F4783028F4663018F4672F0C949C
:1018D000A90B90E080E0089580E108958AE592E008
:1018E0000895EF92FF920F931F93CF93DF93EC0134
:1018F0008A017C01E60EF71ECE018A559E4FCE1559
:10190000DF0539F4DF91CF911F910F91FF90EF9098
:101910000895CA3522E0D20740F40E946525F801F7
:1019200080830F5F1F4F2196E7CFF8011082F9CF18
:10193000CF92DF92EF92FF920F931F93CF93DF939B
:101940007C016A018C01060F171FEC01CE018A553C
:101950009E4FC017D10749F4DF91CF911F910F918E
:10196000FF90EF90DF90CF900895CA3522E0D20724
:1019700040F4FE01EE19FF09EC0DFD1D60810E948F
:1019800073252196E3CFCF93DF93C6EAD1E060E0E1
:10199000CE010E9473252196C11584E0D807B9F7BE
:1019A000DF91CF910895DF92EF92FF920F931F93F3
:1019B000CF93DF9300D000D0CDB7DEB7F82E8FE005
:1019C0008F1540F08FEF93E00E94652506EA11E045
:1019D0008823C1F00F900F900F900F90DF91CF915F
:1019E0001F910F91FF90EF90DF900895011584E013
:1019F000180781F3C8010E946525811101C0FA947E
:101A00000F5F1F4FF110F2CF19821A821B821C82C6
:101A1000DD24D39478018FEFE81AF80AC8010E94F8
:101A2000652589831A828823A9F29FEF980F933046
:101A300078F48A83D9820E5F1F4FC7010E94652503
:101A40008B83882339F2CE0101960E942004E2CFD5
:101A50008701F9CF0F931F93CF93DF93C42FD22F1A
:101A6000FC0182818823C9F04093B4010E94E51CE7
:101A70009093B3018093B20180E28C0F883008F01C
:101A800050C0C77081E001C0880FCA95EAF7DF91A6
:101A9000CF911F910F910C9445131091B401141321
:101AA00035C08091B2019091B3010E94FD1C883C29
:101AB000910560F5C0E2CD0F1D17B9F080E2810FEE
:101AC000883040F4177081E001C0880F1A95EAF75A
:101AD0000E944C13C83048F481E09D2F977001C0DC
:101AE000880F9A95EAF70E944513802F0E943D13B4
:101AF000C830B8F4D77081E001C0880FDA95EAF7F2
:101B0000DF91CF911F910F910C944C1380E28C0FB9
:101B1000883038F4C77081E001C0880FCA95EAF7B1
:101B2000EFCFDF91CF911F910F9108950F939C01FB
:101B3000CB01233F4CE5340759F1A8F4283DFCE5DF
:101B40003F0701F1293D4CE53407D1F1273D3C45E4
:101B500091F406E221EE41EE67ED7CE50E942A0D4C
:101B600080E00F910895253FFCE53F07E9F0B0F0D4
:101B7000263F3C45F9F0FC018281882339F110921F
:101B8000B401EFCF07E225EE45EE68ED7CE5E6CF48
:101B900006E221EE40EE63EF7CE5E0CF07E225EEC2
:101BA00044EE64EF7CE5DACF06E221EE42EE65EF2B
:101BB0007CE5D4CF07E225EE46EE66EF7CE5CECF9E
:101BC00008E221E045EE69ED7CE5C8CF81E0C9CFB0
:101BD000CF93DF93EC01FB018281882309F419C1C3
:101BE000C230FCE5DF07C0F1C6319CE5D90730F013
:101BF0009E012A5F3C452930310570F50E94781B13
:101C000090936B0280936A02C031ECE5DE0709F421
:101C1000CFC008F05BC0C8308CE5D80709F4B6C067
:101C200088F5C430ECE5DE0709F4A8C0C0F4C23082
:101C30008CE5D80709F49CC080916A028260C330A9
:101C4000DC4509F498C080916A0290916B020E9471
:101C5000861B0E94B11580E0DF91CF91089580919D
:101C60006A028061C630ECE5DE0709F484C0809129
:101C70006A028860C730DC4508F47DC080916A0242
:101C8000806279C0CC308CE5D80709F489C070F443
:101C900080916A028C60CA30ECE5DE0709F46BC003
:101CA00008F478C080916A028E7F65C0CE308CE5E2
:101CB000D80709F479C080916A028B7FCF30DC4568
:101CC00008F459C080916A028F7E55C0CB3FECE585
:101CD000DE0709F457C030F5C3318CE5D80709F4A5
:101CE0006FC078F4C131ECE5DE0709F465C0C2319C
:101CF000DC4509F0A8CF0E94B11580916A028F7768
:101D00003AC0C5318CE5D80709F462C008F476C042
:101D100080916B028160CA3FDC4509F094CF8093CB
:101D20006B0291CFCF3FFCE5DF0709F44DC088F48B
:101D300080916B028D7FCD3F9CE5D90781F3809127
:101D40006B028E7FCE3FDC4550F380916B02836047
:101D5000E6CFC130FDE5DF0709F459C008F444C0FF
:101D600080E0C230DD4509F06ECF0E940B1C6BCFC6
:101D700080916A02816080936A0265CF80916A02D5
:101D80008460F9CF80916B028260C9CF80916A0232
:101D90008064F1CF0E94B11580916A028068EBCF18
:101DA00080916A028D7FE7CF80916A02877FE3CFBF
:101DB00080916A028F7DDFCF80916A028F7BDBCFBB
:101DC00080916A02837FD7CF80916B028C7FA7CFEF
:101DD00080916A0282FB992790F921E0922790FB7B
:101DE00082F990FB83F9C7CF80916B02982F909571
:101DF00091708E7F892B90FB81F991CF0E94B11554
:101E000090916A02892F97FB87F98058B4CF81E0BF
:101E1000ACCF81E021CFCF93DF93EB0186319C459E
:101E200011F50E94BB1A9A81992399F08A7A91E060
:101E300009F490E09093B501811109C089E20E94F4
:101E4000961A0E94FA1A80E0DF91CF91089585E3F7
:101E5000F6CF8091B501811104C089E20E949D1ADC
:101E6000F0CF85E3FBCF81E0EFCF61E070E089E068
:101E700091E00C94E70F61E070E089E091E00C9450
:101E8000EE0FCF93DF93D62FC72F0E9488100097B5
:101E9000E9F4ED2FFC2FDC01A554BE4F2C912193CA
:101EA000019684309105B9F70E94561D6E5F7F4FF1
:101EB0008F4F9F4F6093B7017093B8018093B90122
:101EC0009093BA0181E0DF91CF91089580E0FBCF3C
:101ED000CF93DF93D62FC72F6091B7017091B801D0
:101EE0008091B9019091BA010E94391DED2FFC2F0C
:101EF00090E080E02191DC01A554BE4F2C93019627
:101F000084309105B9F7DF91CF9108958EE14A9B16
:101F100002C08150E1F74A9BFECF08955A9880E2B3
:101F20008A95F1F75A9A0895FC013BE03A95F1F74A
:101F300098E020E080E031E040E14A95F1F7880F39
:101F40004A9B02C08160232742E04A95F1F70000D6
:101F500040E14A95F1F7915079F790E19A95F1F7C0
:101F600099B132E03A95F1F7000040E14A95F1F776
:101F700092FB992790F992272081920F90830895E0
:101F8000EF92FF920F931F93CF93DF930F92CDB7F2
:101F9000DEB719828C017C01E60EF11C0E151F05BF
:101FA00061F481E09981911180E00F90DF91CF91F0
:101FB0001F910F91FF90EF9008950E94860FCE0120
:101FC00001960E94940FF80181938F01E7CF9093BF
:101FD000C0018093BF01529A5A9A08959093C0010C
:101FE0008093BF0152985A9AEA9AE9E6F0E080811C
:101FF0008F7C808308956150770B91E001C0990F29
:102000006A95EAF720E031E0911108C0222391F0AF
:102010005A9A80E28A95F1F75A980895492F4823F1
:1020200039F05A9A232740E24A95F1F79695ECCF7A
:102030005A98F9CF5A98EDCFFF920F931F93CF93F1
:10204000DF93EC018C01060F111DC017D10731F48D
:10205000DF91CF911F910F91FF900895F9900E9409
:102060008E0F68E08F2D0E94FB0FEFCF1F920F9213
:102070000FB60F9211242F933F934F935F936F935B
:102080007F938F939F93AF93BF93CF93DF93EF9300
:10209000FF935A98529AC091BF01D091C0016D81AF
:1020A000662321F08E819F810E941C100E948E0F5A
:1020B00080E18A95F1F75A9852985A9A80E18A9568
:1020C000F1F76A81662309F18B819C810E94C00F20
:1020D000E881F981882311F088E001C082E08083E3
:1020E0000E94860FFF91EF91DF91CF91BF91AF9149
:1020F0009F918F917F916F915F914F913F912F9120
:102100000F900FBE0F901F901895E881F981E4CFD2
:10211000CF93DF93C091BF01D091C001F894529A40
:102120005A9885E08A95F1F7000052985A9A80E211
:102130008A95F1F74A9B0CC0529A5A9AE881F98124
:1021400081E08083789481E090E0DF91CF910895E1
:102150006D81662381F08E819F810E94C00F811165
:102160000AC0529A5A9AE881F98182E08083789471
:1021700082E090E0EACF0E94860F80E28A95F1F734
:102180005A98529A80E18A95F1F76A81662321F084
:102190008B819C810E941C100E948E0FE881F98126
:1021A0001082789490E080E0D0CF9093C601809325
:1021B000C5010895E091C501F091C601309721F065
:1021C0000190F081E02D099480E00895E091C5012F
:1021D000F091C601309721F00280F381E02D09943F
:1021E0000895E091C501F091C601309739F022E0E1
:1021F000DC012C930480F581E02D09940895209151
:10220000C3013091C4012817390771F09093C401BC
:102210008093C301E091C501F091C601309721F090
:102220000680F781E02D099408952091C101309135
:10223000C2012817390771F09093C2018093C10140
:10224000E091C501F091C601309721F00084F1853D
:10225000E02D099408950E94F11C6093D4017093BD
:10226000D5018093D6019093D7016093D0017093EC
:10227000D1018093D2019093D301089585B78068EE
:1022800085BF85B7806885BF0895089508950C942B
:10229000451108950C9449110E943E118DE59BE172
:1022A0000E94951D0E9446110C9447110C949607AC
:1022B000089508950E94DC1C0E94301D0E94330680
:1022C0000E94940A0E94B01D0C944A11AF92BF92D2
:1022D000CF92DF92EF92FF920F931F93CF93DF93F2
:1022E000CDB7DEB72A970FB6F894DEBF0FBECDBFCD
:1022F0000E9458110E9459110E94DD0681110E940E
:102300002B1188ECA82E81E0B82E10E000E0C02E42
:10231000802F0E940C06E82EF501F1905F01F8165F
:1023200009F44DC08091440281FD0E9412068F2D58
:102330008E25D12CFF24F394982F9F21D9F10E9450
:102340005611882399F0DE82CF82EF2081E009F4D4
:1023500080E088870E94E51C8160782F9A878987B2
:102360004E815F8168858A850E940712F801E853D3
:10237000FE4F8081F826F0820E9436090E94DA1012
:102380009091C701891791F10E94DA108093C701DB
:102390002A960FB6F894DEBF0FBECDBFDF91CF9166
:1023A0001F910F91FF90EF90DF90CF90BF90AF9073
:1023B0000C942A04D394FF0CF6E0DF12BDCF0F5F1C
:1023C0001F4F0830110509F0A2CF8FEF89838A8350
:1023D0001B820E94E51C8160782F9D838C8349813C
:1023E0005A816B818D810E940712C6CF2A960FB643
:1023F000F894DEBF0FBECDBFDF91CF911F910F913B
:10240000FF90EF90DF90CF90BF90AF900895DF9254
:10241000EF92FF920F931F93CF93DF93CDB7DEB769
:102420002B970FB6F894DEBF0FBECDBF7A878B8790
:10243000F42E052F162FE72ED82E61110E94DB1ADD
:102440001E821D827E2DEC82DD824F2D502F612F4A
:102450008D2D9E812B960FB6F894DEBF0FBECDBF9B
:10246000DF91CF911F910F91FF90EF90DF900C942F
:102470002718FC01808191810C94681ACF93C82F92
:10248000882309F48BC08238C1F40E94DA1081FDE0
:1024900085C089E30E94961A0E94FA1A2FEF81EEF6
:1024A00094E0215080409040E1F700C0000089E3B3
:1024B0000E949D1ACF910C94FA1A8338A1F40E94BD
:1024C000DA1080FD6BC083E50E94961A0E94FA1A0A
:1024D0002FEF81EE94E0215080409040E1F700C062
:1024E000000083E5E5CF8438A1F40E94DA1082FD74
:1024F00055C087E40E94961A0E94FA1A2FEF81EEC7
:1025000094E0215080409040E1F700C0000087E453
:10251000CFCF8CEF8C0F813A90F46C2F809111010A
:10252000909112010E94221C882329F08C2F0E9476
:102530009D1A0E94FA1A8C2F0E94961ABBCF80E235
:102540008C0F883048F4C77081E001C0880FCA95AD
:10255000EAF70E94BE1AAECFEBE5EC0FE33040F491
:10256000F0E0E557FE4F808190E0CF910C94FF1092
:10257000E8E5EC0FE73150F4F0E0EE0FFF1FE35A0F
:10258000FE4F80819181CF910C941511C03F30F0A6
:102590008C2F0E944808CF910C941B09CF9108956D
:1025A000882309F452C0823871F40E94DA1081FF46
:1025B0004CC089E30E94961A0E94FA1A89E30E948D
:1025C0009D1A0C94FA1A833859F40E94DA1080FF8D
:1025D0003CC083E50E94961A0E94FA1A83E5EFCF69
:1025E000843859F40E94DA1082FF2FC087E40E94D9
:1025F000961A0E94FA1A87E4E2CF9CEF980F913A5C
:10260000F0F290E2980F983050F4877091E001C09A
:10261000990F8A95EAF7892F0E94C41AD2CF9BE5B9
:10262000980F933020F490E080E00C94FF1098E530
:10263000980F973120F490E080E00C941511803FC2
:1026400020F00E94A2080C941B0908951F93CF93B9
:10265000DF93182FEB010E943E12209731F4812F57
:10266000DF91CF911F910C94D0128FE99FE00197D9
:10267000F1F700C000002197F0CF70E060E08933EF
:1026800011F460E570E00C942613882321F00E9479
:10269000BE1A0C94FA1A0895882321F00E94C41AD5
:1026A0000C94FA1A0895BF92CF92DF92EF92FF92A4
:1026B0000F931F93CF93DF936C01D62FC72FFC018D
:1026C0001281058102950F700E94B41AE82E8823AA
:1026D000A1F0E12E112389F08C2F807F803429F026
:1026E00080E28D0FE12C883040F082E00E94451B93
:1026F0000E94B41A91E0E82EE926BC2EB2949FE025
:10270000B922FBE0FB1598F1EB2DF0E0E454FA4D13
:102710000C9444250C2F0F70C07F11F00295007FA0
:102720001123A9F0002359F080E28D0F883010F0BA
:10273000D11109C0802F0E94BE1A0E94FA1A8D2F53
:102740000E943E1214C0802F0E94CE1AF6CF8D2F09
:102750000E94D012002359F080E28D0F883010F0D3
:10276000D1112CC0802F0E94C41A0E94FA1A2B2D5E
:102770002850330B2430310520F40E94DA100E94D7
:102780002A04EE2009F48EC10E94B01A80FD8AC18D
:10279000F60112820E94AA1A0E943319C6010E94F1
:1027A00073150E94AA1ADF91CF911F910F91FF908C
:1027B000EF90DF90CF90BF900C945419802F0E941F
:1027C000D41AD3CF2C2F2F70F22EC07FC03219F025
:1027D000F29480EFF822DD2369F0D13049F1112322
:1027E00091F1002351F1F601858180FFA8CF8F7010
:1027F000858323C0112381F0011106C00E94E11AD4
:102800008F290E944513B3CF0130C1F70E94E11A0E
:102810008F290E94E71AABCF011106C00E94F01A5F
:102820008F2D0E944C13A3CF013009F4A0CFF6CF17
:10283000112329F0063008F09ACF8F2DE2CF053012
:1028400008F095CFEDCF002359F3D93349F4FFEFCA
:1028500027EE33E0F15020403040E1F700C00000A7
:102860008D2F0E94D01283CF8C2F869586958370F2
:1028700069F0813009F07BCF8D2F9C2F937011115F
:1028800002C090E080E00E94151171CF8D2F9C2F27
:102890009370111102C090E080E00E94FF1067CF9A
:1028A0008D2F112329F00E9448080E941B095FCF39
:1028B0000E94A208FACF8C2F837009F041C0111139
:1028C00056CF4D2F429546954770440F440F0D2F1C
:1028D0000F7010E030E020E0042E04C0000F111F44
:1028E000221F331F0A94D2F760E070E0CB01D4FFBF
:1028F0000FC06FE070E080E090E004C0660F771FCB
:10290000881F991F4A95D2F760957095809590958C
:10291000C695C695C370602B712B822B932BC2304A
:1029200049F058F4C13019F00E94E51820CF0E94F8
:10293000D3181DCF0E94F7181ACF0E94D11817CFB5
:102940008695112311F08C2F8170882309F40FCF05
:102950004D2F429546954770440F440F0D2F0F7031
:1029600010E030E020E0042E04C0000F111F221FF1
:10297000331F0A94D2F760E070E0CB01D4FF0FC0A0
:102980006FE070E080E090E004C0660F771F881F62
:10299000991F4A95D2F76095709580959095C69548
:1029A000C695C370602B712B822B932BC23049F0DC
:1029B00058F4C13019F00E94AA19D9CE0E94981972
:1029C000D6CE0E94BC19D3CE0E940D19D0CECF70A6
:1029D000112329F08C2F0E9433198D2F12CF8D2FA8
:1029E0000E944C138C2F0E945419C1CED23F89F102
:1029F00060F4D03FC9F0D13F29F1112309F442C05E
:102A000001119DCE8C2F8F7121C0D33F39F1D43F5E
:102A1000A1F7112369F1CF718C2F0E94331963E064
:102A20008C2F0E94301BA3CE112341F0053008F0FB
:102A30009ECE8C2F8F710E94771999CE063008F0A8
:102A400096CEF7CF8C2F8F71112369F20E94331924
:102A50008ECE8C2F8F711123C9F3C5CF112329F08E
:102A60008C2F8F710E941E1982CE0E9419197FCE61
:102A700081E00E94451B023008F479CE82E00E947A
:102A8000451B75CE002359F0D93309F0E9CE8FEFFD
:102A900097EEE3E081509040E040E1F7DFCE8C2FED
:102AA0008F71A1CFDF91CF911F910F91FF90EF9088
:102AB000DF90CF90BF9008950F931F93CF93DF9334
:102AC000EC01688179818A810E94721A8C010E94CE
:102AD000CE190E94D018B801CE01DF91CF911F917D
:102AE0000F910C945313CF93DF93EC018B819C8156
:102AF000892B29F08881998189238F3F59F4DF91AF
:102B0000CF910895CE010E945C15CE01DF91CF9147
:102B10000C948302CE010E9410038111F3CF0E9416
:102B2000B41A882361F38A81882349F382E0DF9114
:102B3000CF910C94451B90E080E00E94FF1090E044
:102B400080E00E9415110E94DB1A0E94DE1A0E948A
:102B5000FA1A0E94420A0C941B090E94A41A0C94AF
:102B60009B150E94CB1A0C94AD15E92FE295EF70DE
:102B7000E250EE3070F4F0E0E853FA4D0C94442546
:102B8000803F19F020F4883E20F481E00895843FCE
:102B9000E1F380E00895883EC0F3813FD1F7F5CF9F
:102BA00093FB882780F908950E94681A0C94B51544
:102BB000CF93DF9300D000D00F92CDB7DEB70F9048
:102BC0000F900F900F900F90DF91CF910895CF93BA
:102BD000DF9300D000D000D0CDB7DEB726960FB679
:102BE000F894DEBF0FBECDBFDF91CF9108951F9344
:102BF000CF93DF93C091D90116E08091DA018C1355
:102C000004C0DF91CF911F910895D0E01C9FF00187
:102C10001D9FF00D1124E552FE4F408151816281CC
:102C20007381848195810E94E7152196C770E5CF55
:102C300040910B0250910C0260910D0270910E02B6
:102C400080910F02909110020C94E7151F93CF937F
:102C5000DF9380911002807FA9F480910D02882378
:102C600089F08091D901C091DA0160910B027091D5
:102C70000C02A0910E02B0910F02D62FD72316E0BE
:102C8000C81304C0DF91CF911F91089590E0109771
:102C900011F0DF3F19F401968770F2CF189F900171
:102CA000199F300D1124F901E552FE4F4181471360
:102CB000F2CF40814613EFCF42814111ECCF4381E7
:102CC00054814A1B5B0B483C510528F78091100248
:102CD0008F70806180931002F901E052FE4F808175
:102CE0008F70806180838BE092E00E947315DF918A
:102CF000CF911F910C94F715AF92BF92CF92DF92B4
:102D0000EF92FF920F931F93CF93DF93CDB7DEB770
:102D100061970FB6F894DEBF0FBECDBF8C0185E082
:102D2000F801DE011D9601900D928A95E1F7F801F8
:102D300040815181E2808BE0C82E82E0D82E6091E4
:102D40000E0270910F026115710509F461C1909135
:102D50000B0220910C02892F82238F3F09F458C166
:102D6000A380B480F0900D02F501E61BF70BFF2065
:102D700009F4FCC080911002382F307FE83CF10547
:102D800008F0B2C0311179C0FE2C251323C0941372
:102D900021C0E1101FC08F708061809310020E94DB
:102DA0001816C6010E94731580911002F8018583E0
:102DB0008F2D61960FB6F894DEBF0FBECDBFDF91A9
:102DC000CF911F910F91FF90EF90DF90CF90BF9028
:102DD000AF900895AB2829F0842F85238F3F09F009
:102DE00033C180E0F82FF170DF2E80FF3CC080916E
:102DF000D9012091DA0136E0821315C04D875E8734
:102E00008D859E850E94681A292F22952F70223069
:102E1000F0F0243018F59F70F1F0F8019581907F63
:102E2000D1F4D12C1EC090E0389FF001399FF00DF5
:102E30001124E552FE4F6181651306C06081641361
:102E400003C062816E110FC001968770D5CF9F704D
:102E500011F0882331F3805E883018F3C8010E9496
:102E60007315FD2CA5CFEE2009F4A2CF809110029E
:102E7000816080931002F12C9BCF251306C0941320
:102E800004C0F801EE2009F48DC04D875E878D8562
:102E90009E850E94D415882319F1EE2009F18091B6
:102EA0001002803270F020910B0230910C023887B2
:102EB0002F831986BB86AA868C87CE0107960E942F
:102EC000731586E0F801ABE0B2E001900D928A95AF
:102ED000E1F70E9426160E941816FF24F39468CF8B
:102EE000C8010E947315F9CF311113C07A2DB98A28
:102EF000A88A6E2D89890E94D8158BE092E00E94E5
:102F0000731586E0F60111928A95E9F70E9418166A
:102F1000B2CF25130FC094130DC0E1100BC0F80100
:102F20008583C8010E94731586E0F60111928A9587
:102F3000E9F73ECF4D875E878D859E850E94D4152B
:102F4000882371F2EE2061F280911002803208F441
:102F5000B8CF20910B0230910C023A8329831B8257
:102F6000BD82AC828E83CE010196A9CFE83CF105EB
:102F700008F041C0FE2CEE2009F4B2CF25132AC080
:102F8000941328C08091100280FD1BC0982F907F61
:102F9000C1F0F8018583903F31F0982F907F905FCA
:102FA0008F70892B8583C8010E94731586E0F80114
:102FB000ABE0B2E001900D928A95E1F70E941816FD
:102FC000F7CE86E0F801ABE0B2E001900D928A9571
:102FD000E1F7EECE4D875E878D859E850E94D415E4
:102FE00081116FCF80911002816080931002C8011F
:102FF0000E947315DDCE7A2DB98AA88A6E2D898933
:103000000E94D81586E0F60111928A95E9F7D6CF8D
:10301000EE2009F465CF4D875E878D859E850E94E1
:10302000D415F82E882309F45BCF86E0F801ABE0D5
:10303000B2E001900D928A95E1F78BE092E00E9458
:1030400039120E942616BACF81E08E25CBCE1F936F
:10305000CF93DF93CDB7DEB72C970FB6F894DEBFD2
:103060000FBECDBF4F83588769877A878B879C8730
:10307000CE0107960E947C16882369F08A859B857D
:10308000892B39F04F815885842F85238F3F09F094
:1030900071C016E05FC086E0FE013796DE01119632
:1030A00001900D928A95E1F78A859B85892B89F39A
:1030B0008F81988589238F3F61F32091DA0130E079
:1030C000C9010196877099274091D90148171906BF
:1030D00071F40E94B1151092DA011092D90186E0C4
:1030E000EBE0F2E0DF011D928A95E9F7D2CF96E09E
:1030F000929FD001939FB00D1124A552BE4FFE01A7
:10310000319601900D929A95E1F78093DA010E9431
:10311000F715BFCF819FC001112485529E4F0E9499
:103120007C168823E9F0E091D9011E9FF00111245B
:10313000E552FE4F40815181628173818481958186
:103140000E94E7158091D90190E001968770992738
:103150008093D9018091D9019091DA018913DACF56
:103160002C960FB6F894DEBF0FBECDBFDF91CF9186
:103170001F91089569857A858B859C850E94E71546
:1031800088CF08950C94C1180E94C218609333022E
:103190007093340280933502909336020C949B1501
:1031A00008950C94C4180F931F930091330210914B
:1031B00034022091350230913602602B712B822B24
:1031C000932B1F910F910C94C4180F931F93009190
:1031D000330210913402209135023091360260237F
:1031E0007123822393231F910F910C94C4180F9382
:1031F0001F930091330210913402209135023091D7
:10320000360260277127822793271F910F910C9414
:10321000C4180C94C1180C9409190E940B196093DE
:103220002F027093300280933102909332020C94FB
:103230009B1560E070E0CB010C940D190F931F9368
:1032400041E050E060E070E08A019B0104C0000FA3
:10325000111F221F331F8A95D2F7C901B8011F9190
:103260000F910C940D190F931F9341E050E060E013
:1032700070E004C0440F551F661F771F8A95D2F770
:1032800080912F0290913002A0913102B0913202D0
:103290008A019B01082B192B2A2B3B2BC901B80152
:1032A0001F910F910C940D190F931F9341E050E063
:1032B00060E070E004C0440F551F661F771F8A95B9
:1032C000D2F7CB01BA0160957095809590950091E9
:1032D0002F0210913002209131023091320260238E
:1032E0007123822393231F910F910C940D190F9337
:1032F0001F9341E050E060E070E004C0440F551FB0
:10330000661F771F8A95D2F780912F029091300225
:10331000A0913102B09132028A019B01082719273E
:103320002A273B27C901B8011F910F910C940D1951
:103330000F931F9300912F021091300220913102C0
:1033400030913202602B712B822B932B1F910F91A6
:103350000C940D190F931F9300912F0210913002BE
:103360002091310230913202602371238223932312
:103370001F910F910C940D190F931F9300912F0221
:103380001091300220913102309132026027712772
:10339000822793271F910F910C940D190895E92FFF
:1033A000EE0FE90FEE0F8E0F982F977041E001C0DE
:1033B000440F9A95EAF786958695869595E0899FBC
:1033C000F0011124EF5EFD4F30E020E070E05191FC
:1033D000DF011197CB01022E02C0969587950A94C2
:1033E000E2F7817081958527842385278C932F5F51
:1033F0003F4F2530310559F70895E92FEE0FE90FBA
:10340000EE0F8E0F982F977086958695869525E0FE
:10341000829FF0011124EF5EFD4F50E040E080E01C
:10342000219130E0092E02C0369527950A94E2F7E3
:1034300021703327042E01C0220F0A94EAF7822B51
:103440004F5F5F4F4530510559F70895BF92CF92B6
:10345000DF92EF92FF920F931F93CF93DF938C0134
:10346000C0902F02D0903002E0903102F0903202F2
:103470008091330290913402A0913502B0913602CE
:10348000C82AD92AEA2AFB2ACFE1D0E0BC2ED701EC
:10349000C6010C2E04C0B695A795979587950A94FA
:1034A000D2F780FD0EC0219788F7B12C8B2DDF91CC
:1034B000CF911F910F91FF90EF90DF90CF90BF9031
:1034C0000895B8018C2F0E943204019761F3EECF6A
:1034D000CF93DF93EC010E94261ABE01DF91CF91BA
:1034E0000C9432041F93CF93DF93EB019091D8019A
:1034F000992331F0CB01DF91CF911F910C94681A81
:10350000882379F0CB010E94261A182F682FCE014C
:103510000E94CF19BE01812FDF91CF911F910C9492
:103520003204CB010E94FD19182FF4CF682F80912F
:103530001101909112010C94581C682F8091110177
:10354000909112010C945A1C8091110190911201DA
:103550000C945C1C8091370285958595859508951E
:10356000809137028770089590913702977081E0BB
:1035700009F480E0089580914302089590914302F8
:10358000892B80934302089580959091430298235C
:10359000909343020895109243020895909142023D
:1035A000892B80934202089580959091420298233E
:1035B000909342020895109242020895109241029F
:1035C000089580913802089508950C94E41A90911A
:1035D0003802981721F0809338020C94E51A089568
:1035E00080913802882329F01092380280E00C94F0
:1035F000E51A0895E0911101F091120180914302C2
:103600008083E0911101F09112018081909142023A
:10361000892B8083E0911101F091120180819091BA
:103620004102892B808390913802992381F0E091A7
:103630001101F09112018081892B80838091110109
:10364000909112010E94101C81110E94F01A809129
:103650001101909112010C94E61008950C942D1B09
:1036600098E0899F90011124622B609337020E9499
:103670003319809137028595859585950C942E1B7D
:103680001092370280E00C942E1B909137028095A7
:10369000892380933702282F277071F4282F082E52
:1036A000000C330B9217130639F085958595859597
:1036B0000E9454190C94401B089580E008956FEF08
:1036C0007FEF90E080E00C94912590E080E00E94F4
:1036D0006D2521E08B3E9E4F09F020E0822F08955A
:1036E00082E090E00C94652583E090E00C946525E1
:1036F000CF9384E090E00E946525C82F81E290E09E
:103700000E946525982F8C2FCF910895CF93C92FB4
:10371000682F84E090E00E9473256C2F81E290E096
:10372000CF910C947325AB01BC018FE090E00C9419
:103730008525AB01BC0183E190E00C94852560E018
:1037400070E0CB010C94991B60E070E0CB010E940B
:10375000931B0C949F1B6BEE7EEF90E080E00E9429
:10376000912560E082E090E00E94732560E083E0B4
:1037700090E00E947325109233021092340210924E
:1037800035021092360260E084E090E00E947325DA
:1037900060E081E290E00E94732560E085E090E0C7
:1037A0000E94732560E086E090E00E9473256FEF31
:1037B00087E090E00E94732540E050E0BA0188E085
:1037C00090E00E94852560E08DE090E00E947325E6
:1037D00040E050E0BA0188E190E00E94852560E079
:1037E00087E190E00E94732540E050E0BA018CE14F
:1037F00090E00E94852560E080E290E00E947325C1
:1038000040E050E0BA0188E190E00E9485250C94E8
:10381000A41B0C94AB1B682F8EE090E00C947325D6
:103820009C012E5F3F4FAC01485F5F4F80E0241743
:10383000350709F40895F90191919F019923B9F38E
:103840008F5FF5CF662349F0FC01329608962191EF
:10385000261729F0E817F907D1F780E0089581E0ED
:1038600008959C01FC0132969FEF80E0419146173C
:1038700051F09F3F19F4411101C0982F8F5F86309E
:10388000A9F79F3F09F40895290F311D97FD3A9537
:10389000F90162830895FC0132960896219126135E
:1038A00003C0DF0111971C92E817F907B9F70895D3
:1038B0000C94311C0C944B1C029626E0FC011192D6
:1038C0002A95E9F70895089508950C94641C809151
:1038D0007002843049F10E94651C80E00E942A0435
:1038E0001092450288E190E020E40FB6F894A89584
:1038F000809360000FBE2093600083B7817F846057
:1039000083BF83B7816083BF7894889583B78E7FA8
:1039100083BF0FB6F894A89580916000886180936A
:103920006000109260000FBE08950895CF930E942A
:10393000631C0E94DD060E94951CC0E08C2F0E9433
:103940000C06811105C0CF5FC830C1F7CF91089533
:1039500081E0FCCF08950C94AA1C0E94B1150E942E
:10396000DA100E942A040C94AB1C1F921FB61F92FF
:1039700011248F939F93AF93BF9380914502811140
:1039800013C08091620290916302A0916402B09191
:1039900065024196A11DB11D80936202909363025E
:1039A000A0936402B0936502BF91AF919F918F91F4
:1039B0001F901FBE1F90189582E084BD93E095BDB7
:1039C0009AEF97BD80936E0008952FB7F894809179
:1039D000620290916302A0916402B09165022FBFD0
:1039E00008952FB7F89460916202709163028091FC
:1039F0006402909165022FBF08959C014FB7F8941F
:103A00008091620290916302A0916402B09165027C
:103A10004FBF821B930B089578941F921FB61F927D
:103A200011248F939F93AF93BF93809162029091E3
:103A30006302A0916402B09165020196A11DB11DBF
:103A40008093620290936302A0936402B093650234
:103A5000BF91AF919F918F911F901FBE1F9018959E
:103A60001092660210926702109268021092690228
:103A70000895CF92DF92EF92FF926B017C010E943A
:103A8000960781110EC00E94F11CC61AD70AE80AD7
:103A9000F90AC0926602D0926702E0926802F09240
:103AA0006902FF90EF90DF90CF9008950F931F93DE
:103AB0000E949607882321F01F910F910C94F11C0E
:103AC0000E94F11C00916602109167022091680229
:103AD00030916902600F711F821F931F1F910F9118
:103AE000089581E08093E00080E28093D8001092F6
:103AF000C9008FE19EE40197F1F700C0000087E064
:103B000090EBDC018093790290937A02A0937B0280
:103B1000B0937C0288E19CE00FB6F894A89580935E
:103B200060000FBE90936000FFCF90939F01809341
:103B30009E0108950C94810A0E94DD068FE39CE9A2
:103B40000197F1F700C000000E94DD0680E00E94AE
:103B50000C0680FF04C00E949A1D0C94711D0895EC
:103B60000E94651B811102C00E94091C0E94701BEB
:103B7000809344020E94781B90936B0280936A02A8
:103B80000E94741B682F70E090E080E00E94D118C2
:103B900060912F0270913002809131029091320237
:103BA0000C940B1980914E020895CF93DF9300D0AF
:103BB0000F92CDB7DEB790917002943011F58983E2
:103BC0007B836A839093E9008FEF9091E8008150A6
:103BD00095FD06C095ED9A95F1F700008111F5CF9E
:103BE0008091E80085FF0DC050E040E063E070E0A8
:103BF000CE0101960E9450208091E8008E7780933C
:103C0000E8000F900F900F90DF91CF910895BC01C5
:103C100084E00C94D51DBC0183E00C94D51D9C015F
:103C200084E08093E9009FEF8091E800915085FD4A
:103C300006C085ED8A95F1F700009111F5CF8091CE
:103C4000E80085FF0CC050E040E066E070E0C9018C
:103C50000E9450208091E8008E778093E8000895BC
:103C6000CF93DF93EC0181E08093E9008FEF909197
:103C7000E800815095FD06C095ED9A95F1F700009A
:103C80008111F5CF8091E80085FF14C050E040E03D
:103C900068E070E0CE010E9450208091E8008E77AD
:103CA0008093E80088E0FE01A6E4B2E001900D9266
:103CB0008A95E1F7DF91CF910895CF93FC016032AF
:103CC00021F580917002843001F5C091E900CF7038
:103CD0002091EC00922F917020FD90E8C92B82E09A
:103CE0008093E9008091E80080FF0CC050E040E044
:103CF00060E270E0CF010E9450208091E8008E7752
:103D00008093E800CF70C093E900CF91089580912F
:103D10006F02811109C00E942F220E948C22809183
:103D2000E20084608093E200089510926F0208958B
:103D300008950895089542E061EC81E00E94AB216E
:103D400042E261EC84E00E94AB2142E261EC82E05D
:103D50000E94AB2142E260EC83E00C94AB218091A5
:103D60007202833009F461C030F48130D1F18230C5
:103D700009F49DC008958A3009F489C08B3009F494
:103D80006FC0893009F050C080917102813209F012
:103D90004BC08091750290917602009719F00297BE
:103DA00009F042C08091E800877F8093E80080910D
:103DB000E80082FF35C09091F3008091F2000297F5
:103DC00029F48091F1008B7F813021F48091F10002
:103DD00080934E028091E8008B778093E8000C94EA
:103DE000DF2180917102813AF9F48091E800877FA8
:103DF0008093E8008091750290917602892B61F49E
:103E000068E086E492E070E00E94EE208091E80095
:103E10008B778093E800089560E090E080E0F3CF36
:103E2000809170028111C3CF089580917102813A0F
:103E3000D9F78091750290917602892BA9F780912C
:103E4000E800877F8093E8008091E80080FFFCCF46
:103E500080911D018093F1008091E8008E77BDCFA5
:103E600080917102813201F7809175029091760202
:103E7000892BD1F68091E800877F8093E8000E942B
:103E8000DF218091730280931D010C94B115809104
:103E90007102813249F68091E800877F8093E800C3
:103EA0000E94DF218091740280934F0208958091D7
:103EB0007102813A09F0B8CF8091E800877F809342
:103EC000E8008091E80080FFFCCF80914F02C2CFD4
:103ED000CDB7DEB7A0970FB6F894DEBF0FBECDBF4B
:103EE00084B7877F84BF0FB6F894A895809160004F
:103EF000886180936000109260000FBE80E890E0BF
:103F00000FB6F89480936100909361000FBE0E94F9
:103F10004C110E942F220E948C228091E20084602A
:103F20008093E20078940E9415250E945A1183E143
:103F300091E00E94D51013E0809170028530C9F0A5
:103F40000E946611809170028430D1F00E94581155
:103F50000E945911F1CF0E94671C80916E02882344
:103F600041F00E94961C882321F00E943A200E9472
:103F7000B11580917002853071F30E94AD1CE0CFC5
:103F80001093E9008091E80082FFE0CF8091E80083
:103F900090E085FF09C050E040E060E270E0CE01B3
:103FA00001960E949F2091E08091E8008B7780939A
:103FB000E800992359F260E2CE0101960E94E30ADB
:103FC000C5CF0C94E31F292F33272330310521F16E
:103FD00068F42130310509F443C02230310509F479
:103FE00044C090E080E030E020E026C0213231057E
:103FF00051F122323105A9F76330710590F7FB01C9
:10400000EE0FFF1FEF56FE4F2081318162577E4F2A
:10401000FB01808190E010C099278130910581F0EB
:10402000009729F00297E9F6ECE7F2E002C0ECE92C
:10403000F2E0849190E09F01FA013183208308959A
:10404000EEE8F2E0F6CF6330710558F6660F771FA1
:10405000FB01E956FE4F2081318189E090E0ECCFF1
:1040600082E190E02BEF32E0E7CF8BE590E020EAB1
:1040700032E0E2CF80E189BD82E189BD09B400FE72
:10408000FDCF8091D8008F7D8093D8008091E00093
:1040900082608093E0008091E00081FDFCCF089574
:1040A000AF92BF92CF92DF92FF920F931F93CF9365
:1040B000DF936C01EB018A010E94FE21F82E811131
:1040C00023C00115110539F0F80180819181C81BC9
:1040D000D90BC80ED91EB12CA12C2097A9F0809124
:1040E000E80085FD22C08091E8008E778093E8008B
:1040F00001151105A1F0F80180819181A80EB91E6A
:10410000B182A08285E0F82E8F2DDF91CF911F9193
:104110000F91FF90DF90CF90BF90AF9008950E94D5
:10412000FE218823D1F2F82EEFCFF60181916F01A5
:104130008093F1002197FFEFAF1ABF0ACECFAF9265
:10414000BF92CF92DF92FF920F931F93CF93DF9393
:104150006C01EB018A010E94FE21F82E811123C01F
:104160000115110539F0F80180819181C81BD90B27
:10417000C80ED91EB12CA12C2097A9F08091E8007F
:1041800085FD22C08091E8008B778093E8000115BF
:104190001105A1F0F80180819181A80EB91EB182AC
:1041A000A08285E0F82E8F2DDF91CF911F910F9186
:1041B000FF90DF90CF90BF90AF9008950E94FE21B6
:1041C0008823D1F2F82EEFCF8091F100F601819390
:1041D0006F012197FFEFAF1ABF0ACECFFC0180918C
:1041E00077029091780286179707A0F06115710504
:1041F00029F49091E8009E779093E80090E0611593
:10420000710551F4911108C08091E80082FF34C01B
:1042100080E00895BC01F2CF809170028823C1F143
:104220008530C1F18091E80083FD30C08091E800C5
:1042300082FDEACF8091E80080FFE1CF8091F3001A
:104240002091F200382F6115710519F028303105E1
:1042500058F091E02830310509F090E02091E80015
:104260002E772093E800CBCF81918093F1006150AD
:1042700071092F5F3F4FE7CF80917002882341F093
:10428000853041F08091E80083FFBECF81E0089542
:1042900082E0089583E00895FC0180917702909177
:1042A000780286179707A0F06115710529F48091AF
:1042B000E8008E778093E80090E06115710551F475
:1042C000911108C08091E80082FF35C080E0089518
:1042D000BC01F2CF809170028823C9F18530C9F109
:1042E0008091E80083FD31C08091E80082FDEACF33
:1042F0008091E80080FFE1CF8091F3002091F200EF
:10430000382F6115710519F02830310558F091E00A
:104310002830310509F090E08091E8008E77809395
:10432000E800CBCF84918093F10031966150710900
:104330002F5F3F4FE6CF80917002882341F0853098
:1043400041F08091E80083FFBDCF81E0089582E0D5
:10435000089583E00895982F973028F08F70809308
:10436000E90081E008959093E900242F762F50E032
:10437000981731F07091EC002091ED005091F00011
:1043800021FD02C09F5FE8CF3091EB003E7F30936C
:10439000EB003091ED003D7F3093ED003091EB006C
:1043A00031603093EB007093EC002093ED0050935C
:1043B000F0002091EE0027FDE5CF80E00895809188
:1043C000710287FF13C08091E80082FF06C08091D0
:1043D000E8008B778093E80004C08091700281111F
:1043E000F2CF0895809170028823D9F38091E8007C
:1043F00080FFF8CF8091E8008E77ECCF2091E40029
:104400003091E50095E6A9012091EC00822F8170A2
:1044100020FF06C08091E80080FF06C080E008957C
:104420002091E80022FD1AC080917002882389F053
:10443000853089F08091EB0085FD0FC02091E4006C
:104440003091E50042175307F9F29150E1F684E00C
:10445000089582E0089583E0089581E008950E9420
:104460009D220E94A522E0EEF0E0808181608083A1
:10447000E8EDF0E080818F77808319BCA7EDB0E094
:104480008C918E7F8C9380818F7E808310926F02BF
:1044900008950F931F93CF93DF930E949D220E9454
:1044A000A522C8EDD0E088818F77888388818068D5
:1044B000888388818F7D888319BC10927002109246
:1044C0006C0210926E0210926D0200EE10E0F80184
:1044D00080818B7F808388818160888342E060E077
:1044E00080E00E94AB21E1EEF0E080818E7F80834E
:1044F000E2EEF0E08081816080838081886080834B
:10450000F80180818E7F8083888180618883DF913C
:10451000CF911F910F910895E8EDF0E080818F7E9B
:104520008083E7EDF0E080818160808384E082BF5A
:1045300081E080936F020C944922E8EDF0E08081E5
:104540008E7F80831092E20008951092DA0010921C
:10455000E10008951F920F920FB60F9211242F932E
:104560003F934F935F936F937F938F939F93AF93FB
:10457000BF93EF93FF938091E10082FF0BC0809186
:10458000E20082FF07C08091E1008B7F8093E10011
:104590000E9414258091DA0080FF19C08091D80014
:1045A00080FF15C08091DA008E7F8093DA008091C1
:1045B000D90080FF96C080E189BD82E189BD09B440
:1045C00000FEFDCF81E0809370020E94871E8091E3
:1045D000E10080FF19C08091E20080FF15C080914A
:1045E000E2008E7F8093E2008091E2008061809300
:1045F000E2008091D80080628093D80019BC85E0E9
:10460000809370020E94991E8091E10084FF2BC06C
:104610008091E20084FF27C080E189BD82E189BDED
:1046200089B5982F917080FFFBCF8091D8008F7D46
:104630008093D8008091E1008F7E8093E10080918B
:10464000E2008F7E8093E2008091E200816080939F
:10465000E20080916C02882309F449C084E08093D1
:1046600070020E949A1E8091E10083FF29C0809110
:10467000E20083FF25C08091E100877F8093E10005
:1046800082E08093700210926C028091E1008E7F34
:104690008093E1008091E2008E7F8093E200809120
:1046A000E20080618093E20042E060E080E00E94EE
:1046B000AB218091F00088608093F0000E94981EEA
:1046C000FF91EF91BF91AF919F918F917F916F91EA
:1046D0005F914F913F912F910F900FBE0F901F90C0
:1046E000189519BC109270020E94951E70CF80918F
:1046F000E30087FD93E090937002B3CF1F920F9277
:104700000FB60F9211242F933F934F935F936F93A4
:104710007F938F939F93AF93BF93CF93DF93EF9349
:10472000FF93D091E900DF708091EC00C82FC17039
:1047300080FDC0E81092E9008091F000877F8093AF
:10474000F00078940E94C2231092E9008091F0005A
:1047500088608093F000CD2BCF70C093E900FF916B
:10476000EF91DF91CF91BF91AF919F918F917F9109
:104770006F915F914F913F912F910F900FBE0F90CE
:104780001F9018951F93CF93DF93CDB7DEB7AA97ED
:104790000FB6F894DEBF0FBECDBF81E792E0209147
:1047A000F100FC012193CF01F2E089379F07B9F7AF
:1047B0000E94AF1E8091E80083FF1EC180917102AC
:1047C000909172029A3008F017C1E92FF0E0EA5296
:1047D000FA4D0C944425803899F0823809F00CC1C8
:1047E000809175028F70873008F006C18093E900D0
:1047F0008091EB0085FB882780F91092E90006C0C4
:1048000080916D0290916E02911182609091E8000A
:10481000977F9093E8008093F1001092F1008091CF
:10482000E8008E77E5C0882309F4D3C0823009F010
:10483000E3C0809173028111D6C0809175028F70A0
:104840002FEF280F263008F0D7C08093E900209181
:10485000EB0020FFC8C0933031F48091EB00806200
:104860008093EB00C0C09091EB0090619093EB00BF
:1048700021E030E001C0220F8A95EAF72093EA0098
:104880001092EA008091EB008860EACF8111B4C0F9
:10489000109173021F778091E3008078812B8093C1
:1048A000E3008091E800877F8093E8000E94DF2189
:1048B0008091E80080FFFCCF8091E30080688093C6
:1048C000E30082E0111183E08093700295C080586C
:1048D000823008F091C080917302909174028C3DF7
:1048E00023E09207A1F583E08A838AE289834FB7A8
:1048F000F894DE01139620E03EE051E2E32FF0E071
:1049000050935700E49120FF03C0E295EF703F5FA2
:10491000EF708E2F90E0EA30C0F0C7968D939D9394
:104920002F5F243159F74FBF8091E800877F809334
:10493000E8006AE270E0CE0101960E94EE208091CC
:10494000E8008B778093E80057C0C096E7CF60916E
:10495000750270917602AE014F5F5F4F0E94E11FBA
:10496000BC01892B09F448C09091E800977F90938F
:10497000E80089819A810E944C21E1CF8038E1F5DD
:104980008091E800877F8093E80080916C0280939B
:10499000F10045CF811130C090917302923060F5E3
:1049A0008091E800877F8093E80090936C020E94DA
:1049B000DF2180916C02882311F084E005C0809192
:1049C000E30087FDFACF81E0809370020E949B1E76
:1049D00013C080917302813079F481E0933009F043
:1049E00080E080936E021092E9008091E800877F5A
:1049F0008093E8000E94DF218091E80083FF0AC0D5
:104A00008091E800877F8093E8008091EB008062CE
:104A10008093EB00AA960FB6F894DEBF0FBECDBF11
:104A2000DF91CF911F9108950895CF9380917002E7
:104A30008823A1F0C091E900CF709091EC00892FFC
:104A4000817090FD80E8C82B1092E9008091E80009
:104A500083FD0E94C223CF70C093E900CF910895D7
:104A600097FB072E16F4009407D077FD09D00E941B
:104A7000512507FC05D03EF4909581959F4F0895F0
:104A8000709561957F4F0895EE0FFF1F0590F4918B
:104A9000E02D0994692796276927782787277827A3
:104AA0000895AA1BBB1B51E107C0AA1FBB1FA61775
:104AB000B70710F0A61BB70B881F991F5A95A9F7C7
:104AC00080959095BC01CD010895F999FECF92BDD6
:104AD00081BDF89A992780B50895A8E1B0E042E039
:104AE00050E00C949925262FF999FECF92BD81BDF7
:104AF000F89A019700B4021639F01FBA20BD0FB61C
:104B0000F894FA9AF99A0FBE08950396272F0E94F7
:104B100074250E947325252F0E947425242F0C9440
:104B200074250196272F0E9474250C947325DC01AF
:104B3000CB01FC01F999FECF06C0F2BDE1BDF89AA8
:104B4000319600B40D9241505040B8F70895F89452
:104B5000FFCFF50A020B290B350B400B4B0B4E0B0D
:104B60004E0B4E0B4E0B4E0B510B550B5D0B6A0B48
:104B7000770B7A0B7D0B8A0B8A138A13E213E213ED
:104B800034145014B713B7135B14E714F614F61467
:104B9000C015C015C915C915CB15C915C915C91535
:104BA000C015C015D015C915C915D015EB23132490
:104BB000FC241324FC2446246724FC24BE24CA2499
:104BC000012808641E140A321EB60104B70104BB92
:104BD000013902D21D301E0F1E0B1E071E01E200FE
:104BE000E900EA00B500B600B700CD008301CC00B3
:104BF0008A01920194012102230224022502260245
:104C000027022A02B300B4006F0070008182833350
:104C100031F7F6F5F4946697C600000000E200E96B
:104C200000EA00B500B600B700CD008301CC008AD1
:104C30000192019401210223022402250226022767
:104C4000022A02B300B4006F007000818283402208
:0E4C50007BAA030D032F03B202CB02EB02007E
:00000001FF
